:020000040000fa
:080000000002040000000000f2
:020000040000fa
:04000800e002000012
:020000040000fa
:04000c00e00200000e
:020000040000fa
:04001000e00200000a
:020000040000fa
:04001400e002000006
:020000040000fa
:04001800e002000002
:020000040000fa
:04001c00e0020000fe
:020000040000fa
:04002000e0020000fa
:020000040000fa
:04002400e0020000f6
:020000040000fa
:04002800e0020000f2
:020000040000fa
:04002c00e0020000ee
:020000040000fa
:04003000e0020000ea
:020000040000fa
:04003400e0020000e6
:020000040000fa
:04003800e0020000e2
:020000040000fa
:04003c00e0020000de
:020000040000fa
:04004000e0020000da
:020000040000fa
:04004400e0020000d6
:020000040000fa
:04004800e0020000d2
:020000040000fa
:04004c00e0020000ce
:020000040000fa
:04005000e0020000ca
:020000040000fa
:04005400e0020000c6
:020000040000fa
:04005800300500006f
:020000040000fa
:04005c00e0020000be
:020000040000fa
:04006000e0020000ba
:020000040000fa
:04006400e0020000b6
:020000040000fa
:04006800e0020000b2
:020000040000fa
:04006c00e0020000ae
:020000040000fa
:04007000e0020000aa
:020000040000fa
:04007400e0020000a6
:020000040000fa
:04007800e0020000a2
:020000040000fa
:04007c00e00200009e
:020000040000fa
:04008000e00200009a
:020000040000fa
:04008400e002000096
:020000040000fa
:04008800e002000092
:020000040000fa
:04008c00e00200008e
:020000040000fa
:04009000e00200008a
:020000040000fa
:04009400e002000086
:020000040000fa
:04009800e002000082
:020000040000fa
:04009c00e00200007e
:020000040000fa
:0400a000e00200007a
:020000040000fa
:0400a400e002000076
:020000040000fa
:0400a800e002000072
:020000040000fa
:0400ac00e00200006e
:020000040000fa
:0400b000e00200006a
:020000040000fa
:0400b400e002000066
:020000040000fa
:0400b800e002000062
:020000040000fa
:0400bc00e00200005e
:020000040000fa
:0400c000e00200005a
:020000040000fa
:0400c400e002000056
:020000040000fa
:0400c800e002000052
:020000040000fa
:0400cc00e00200004e
:020000040000fa
:0400d000e00200004a
:020000040000fa
:0400d400e002000046
:020000040000fa
:0400d800e002000042
:020000040000fa
:0400dc00e00200003e
:020000040000fa
:0400e000e00200003a
:020000040000fa
:0400e400e002000036
:020000040000fa
:0400e800e002000032
:020000040000fa
:0400ec00e00200002e
:020000040000fa
:0400f000e00200002a
:020000040000fa
:0400f400e002000026
:020000040000fa
:0400f800e002000022
:020000040000fa
:0400fc00e00200001e
:020000040000fa
:04010000e002000019
:020000040000fa
:04010400e002000015
:020000040000fa
:04010800e002000011
:020000040000fa
:04010c00e00200000d
:020000040000fa
:04011000e002000009
:020000040000fa
:04011400e002000005
:020000040000fa
:04011800e002000001
:020000040000fa
:04011c00e0020000fd
:020000040000fa
:04012000e0020000f9
:020000040000fa
:04012400e0020000f5
:020000040000fa
:04012800e0020000f1
:020000040000fa
:04012c00e0020000ed
:020000040000fa
:04013000e0020000e9
:020000040000fa
:04013400e0020000e5
:020000040000fa
:04013800e0020000e1
:020000040000fa
:04013c00e0020000dd
:020000040000fa
:04014000e0020000d9
:020000040000fa
:04014400e0020000d5
:020000040000fa
:04014800e0020000d1
:020000040000fa
:04014c00e0020000cd
:020000040000fa
:04015000e0020000c9
:020000040000fa
:04015400e0020000c5
:020000040000fa
:04015800e0020000c1
:020000040000fa
:04015c00e0020000bd
:020000040000fa
:04016000e0020000b9
:020000040000fa
:04016400e0020000b5
:020000040000fa
:04016800e0020000b1
:020000040000fa
:04016c00e0020000ad
:020000040000fa
:04017000e0020000a9
:020000040000fa
:04017400e0020000a5
:020000040000fa
:04017800e0020000a1
:020000040000fa
:04017c00e00200009d
:020000040000fa
:04018000e002000099
:020000040000fa
:04018400e002000095
:020000040000fa
:04018800e002000091
:020000040000fa
:04018c00e00200008d
:020000040000fa
:04019000e002000089
:020000040000fa
:04019400e002000085
:020000040000fa
:04019800e002000081
:020000040000fa
:04019c00e00200007d
:020000040000fa
:0401a000e002000079
:020000040000fa
:0401a400e002000075
:020000040000fa
:0401a800e002000071
:020000040000fa
:0401ac00e00200006d
:020000040000fa
:0401b000e002000069
:020000040000fa
:0401b400e002000065
:020000040000fa
:0401b800e002000061
:020000040000fa
:0401bc00e00200005d
:020000040000fa
:0401c000e002000059
:020000040000fa
:0401c400e002000055
:020000040000fa
:0401c800e002000051
:020000040000fa
:0401cc00e00200004d
:020000040000fa
:0401d000e002000049
:020000040000fa
:0401d400e002000045
:020000040000fa
:0401d800e002000041
:020000040000fa
:0401dc00e00200003d
:020000040000fa
:0401e000e002000039
:020000040000fa
:0401e400e002000035
:020000040000fa
:0401e800e002000031
:020000040000fa
:0401ec00e00200002d
:020000040000fa
:0401f000e002000029
:020000040000fa
:0401f400e002000025
:020000040000fa
:0401f800e002000021
:020000040000fa
:0401fc00e00200001d
:020000040000fa
:04020000e002000018
:020000040000fa
:04020400e002000014
:020000040000fa
:04020800e002000010
:020000040000fa
:04020c00e00200000c
:020000040000fa
:04021000e002000008
:020000040000fa
:04021400e002000004
:020000040000fa
:04021800e002000000
:020000040000fa
:04021c00e0020000fc
:020000040000fa
:04022000e0020000f8
:020000040000fa
:04022400e0020000f4
:020000040000fa
:04022800e0020000f0
:020000040000fa
:04022c00e0020000ec
:020000040000fa
:04023000e0020000e8
:020000040000fa
:04023400e0020000e4
:020000040000fa
:04023800e0020000e0
:020000040000fa
:04023c00e0020000dc
:020000040000fa
:04024000e0020000d8
:020000040000fa
:04024400e0020000d4
:020000040000fa
:04024800e0020000d0
:020000040000fa
:04024c00e0020000cc
:020000040000fa
:04025000e0020000c8
:020000040000fa
:04025400e0020000c4
:020000040000fa
:04025800e0020000c0
:020000040000fa
:04025c00e0020000bc
:020000040000fa
:04026000e0020000b8
:020000040000fa
:04026400e0020000b4
:020000040000fa
:10040000ef1821000eff27000e01880000000000f9
:10041000000020000000e000020032000001200087
:10042000200288000c000700605f2000010020000f
:100430000f000700000020000000e0000200320072
:10044000000002000000000056030200000000004f
:100450000040da000000fe00200720000000e0005d
:1004600002003200002020009001880000000600f9
:10047000a1028800800078000000eb001a0037001d
:10048000e280400054a0b4009101ba00e280400034
:1004900054a0b4009102ba00e280400054a0b4001d
:1004a0000002eb00472bde00f507b200a601880032
:1004b000602ce10008003a000049eb000201e8006e
:1004c000020039003420ec0002f0a0008301e900b2
:1004d000f9ff3e00040037006128e100010032000e
:1004e0000082eb000b00070011c3ba001101ba0033
:1004f0000604e00003003a000200e000e0ff3a00da
:1005000000000600f607b200a6028800820078000c
:10051000f5ff370004d0a300e20f49001c003900aa
:10052000810278003549ba000201e8000200390072
:100530003420ec0002f0a0008301e9000f0032003b
:100540002549ba000201e800020039003420ec001d
:1005500002f0a0008301e900080032000400e0007e
:100560000600320015c9ba000201e8000200390095
:100570003420ec0002f0a0008301e9008180e80053
:1005800054a0b4000300e000e2ff3a0000000600bf
:100590009102ba00055978008301e900f7ff3200a3
:1005a000c82ade00055978008301e900f3ff320014
:1005b0000400e000f1ff320011d9ba00eeff37006d
:0805c0000040da000000fe001b
:020000040000fa
:1005c800466c000061730000686900006e670000f7
:1005d8002050000061670000652000000a0000004c
:1005e800506100006765000020450000726100004e
:1005f80073650000642000000a00000057720000c4
:1006080069740000696e0000672000004c610000fa
:100618007463000068650000732000000a00000091
:100628004c610000746300006865000073200000de
:100638005772000069740000746500006e200000a5
:100648000a000000526f000077200000507200007e
:100658006f670000726100006d6d0000696e000038
:10066800672000007374000061720000747300005a
:10067800200a0000005200006f77000020500000a0
:10068800726f000067720000616d00006d69000004
:100698006e670000204500006e64000073200000b3
:0406a8000a00000044
:020000040000fa
:1006ac000200fa005d0007008a00070085000700c1
:1006bc000000eb00000f780005003700c00021009f
:1006cc001e004000b1cab300014878001e0fe800bc
:1006dc00f01720009e007800808f5000f7ff360046
:1006ec00402e2800c0000700014020000000eb0055
:1006fc00dc000700402f2800bb000700401f200033
:10070c002f00070020302800b7000700c000210090
:10071c002201070040312800b30007006032280096
:10072c00b1000700014020000000eb00eb000700c7
:10073c00f0332800ac000700401f20002000070009
:10074c00014020000000eb00000107000080880041
:10075c0011808800e14f20000000eb00fb00070037
:10076c002080880031808800c14f20000000eb0001
:10077c00f600070040808800518088008000eb0064
:10078c00f00f2000f1000700008088001180880025
:10079c0021002000f00f2000ec00070020808800d2
:1007ac003180880014aea900401f2000040007000f
:1007bc0014aea800401f200001000700f9ff37000d
:1007cc000200fa00000f78000000280020088800c2
:1007dc00060037000021ef00000000000108800037
:1007ec00f0c32900808f5000fcff36001e007800fb
:1007fc0000f0a7000000ea000000ea004f00de0055
:10080c00004078001e0fe9000004e000f1ff3a0000
:10081c000421ef000080fa00000006000000fa003e
:10082c0060022000303a8800203a80000060a1006d
:10083c000070a100203a8800213a800000fe2f00b1
:10084c0000806000203a880040a7a90032002000f8
:10085c0080072000a1092000337420008049780013
:10086c008149780082497800103a800012002000fb
:10087c00600420007105200023742000804978005a
:10088c00814978008249780000000000113a80000c
:10089c00000027008080600000002300808f500043
:1008ac00faff3a0000000000113a8000000220001c
:1008bc00008060000000e000fbff32000080fa00c6
:1008cc00000006000000fa0010aea9000080fa003b
:1008dc00000006000000fa002022ef00301020007b
:1008ec00401188002222ef000188a9002188a8006d
:1008fc000168a9002168a90042c7a9008026ef0061
:10090c0001348000f00f2c0080806000001020006b
:10091c0001007000003488002136800000f82f00a0
:10092c0080806000c0042000010070002036880028
:10093c0042c7a80021e2a8002342a8000188a90010
:10094c000080fa00000006000200fa00004f780058
:10095c001111800000202000008060000000e000e9
:10096c000600320000000000111180000010200071
:10097c00008060000000e000fbff32001e00fb0066
:10098c00201188000080fa00000006000200fa0026
:10099c00000f780010118000620060000000e00081
:1009ac00050032002222a90000c0eb000c00370029
:1009bc001e0fe9000100370000000000101180003c
:1009cc00610060000000e00003003a001e007800a7
:1009dc000000e000f6ff3a00301180000040780083
:1009ec000080fa00000006000400fa0010079800ce
:1009fc000000eb00000f7800060037001e007800a6
:100a0c009e00900000804000104078001e0fe8000f
:100a1c00cdff07001e0078009e0090000080400073
:100a2c00104078000004e000f4ff3a000080fa0067
:100a3c00000006000000fa002168a8000080fa00ff
:100a4c00000006000000fa002168a9000080fa00ee
:100a5c00000006000000fa000188a9000080fa00de
:100a6c00004006000400fa00000f780011079800ff
:100a7c005400f8009e007800613988009e009000b8
:100a8c005139880030002400403988000600fc00f1
:100a9c005005200070398800a00a200070398800a9
:100aac0029e7a800000000000000000029e7a800ca
:100abc000000000000000000000000004139800030
:100acc0000002800008060000000e000fbff3a00fe
:100adc005400f9000080fa00000006000400fa003f
:100aec00000f7800110798009e007800613988008b
:100afc009e00900051398800200024004039880065
:100b0c000600fc005005200070398800a00a200067
:100b1c007039880029e7a8000000000000000000e0
:100b2c0029e7a80000000000000000000000000001
:100b3c004139800000002800008060000000e000c7
:100b4c00fbff3a000080fa00000006000800fa00e3
:100b5c002007980031079800ae009000a102880091
:100b6c003e0090001080ba008000eb00008fbe00a9
:100b7c001e00be00c001dd00020020003e009000ff
:100b8c001000ba008000eb00001f7100019771008b
:100b9c001e00be000080fa00000006000200fa00f1
:100bac00000f7800000178005400f800a00f20001e
:100bbc00a00288000100200003082000b258bb00ee
:100bcc00b250bb00b2c8bb008180e8008301e900d1
:100bdc00faff3a005400f9000080fa000000060009
:020000040000fa
:100bec000c100000820100008000000000100000ca
:0c0bfc000c0000008000000004068000d7
:020000040000fa
:040c080000000000e8
:020000040000fa
:0200000401f009
:04000800cfff000026
:020000040000fa
:0200000401f009
:04000c00f8ffff00fa
:020000040000fa
:0200000401f009
:040010005dffff0091
:020000040000fa
:0200000401f009
:040014007fffff006b
:020000040000fa
:0200000401f009
:04001800ffffff00e7
:020000040000fa
:0200000401f009
:04001c00ddffff0005
:020000040000fa
:0200000401f009
:04002000cfffff000f
:00000001FF
