:020000040000fa
:080000000002040000000000f2
:020000040000fa
:10000800d2020000d2020000d2020000d202000098
:10001800d2020000d2020000d2020000d202000088
:10002800d2020000d2020000d202000082030000c7
:10003800d2020000d2020000d2020000be0300007b
:10004800d2020000d2020000d2020000d202000058
:10005800d2020000d2020000d2020000d202000048
:10006800d2020000d2020000d2020000d202000038
:10007800d2020000d2020000d2020000d202000028
:020000040000fa
:100400004f0021000eff27000e01880000000000b1
:10041000000020000000e000020032000001200087
:10042000200288000c000700c044200001002000ca
:100430000f000700000020000000e0000200320072
:100440000000020000000000d602020000000000d0
:100450000040da000000fe00200020000000e00064
:100460000200320010002000900188000000060009
:10047000a1028800800078000000eb001a0037001d
:10048000e280400054a0b4009101ba00e280400034
:1004900054a0b4009102ba00e280400054a0b4001d
:1004a0000002eb00472bde00f507b200a601880032
:1004b000602ce10008003a000049eb000201e8006e
:1004c000020039003420ec0002f0a0008301e900b2
:1004d000f9ff3e00040037006128e100010032000e
:1004e0000082eb00040007001101ba000200e000e6
:1004f000e3ff3a000000060004d0a300e20f490029
:100500001c003900810278003549ba000201e80078
:10051000020039003420ec0002f0a0008301e90061
:100520000f0032002549ba000201e800020039003c
:100530003420ec0002f0a0008301e9000800320042
:100540000400e0000600320015c9ba000201e8000c
:10055000020039003420ec0002f0a0008301e90021
:100560008180e80054a0b4000300e000e2ff3a00fc
:10057000000006009102ba00055978008301e900e5
:10058000f7ff3200c82ade00055978008301e90030
:10059000f3ff32000400e000f1ff320011d9ba008d
:0c05a000eeff37000040da000000fe0013
:020000040000fa
:1005ac000000fa002a0007000b00070019000700e2
:1005bc00108ea900106ea90030c1b30002f0b70074
:1005cc00007d20009a0007000270ef00007d2000e3
:1005dc0097000700f8ff37000000fa000421ef0035
:1005ec00200880000040a0000050a00020088800d7
:1005fc000021ef0070892900100888000068a9000c
:10060c00c3e8a8002068a80005e1a8000080fa0053
:10061c00000006000000fa001021ef0080088000a6
:10062c000040a1000050a100800888000621ef00c6
:10063c0000c429006008880000e8a900c3e8a800ed
:10064c0020e8a80011e1a8000080fa0000000600d4
:10065c000000fa0060022000303a8800203a800046
:10066c000060a1000070a100203a8800213a8000af
:10067c0000fe2f0000806000203a880040a7a900ef
:10068c003200200080072000a109200033742000d4
:10069c00804978008149780082497800103a8000be
:1006ac00120020006004200071052000237420003b
:1006bc008049780081497800824978000000000068
:1006cc00113a8000000027008080600000002300a9
:1006dc00808f5000faff3a0000000000113a8000b1
:1006ec0000022000008060000000e000fbff3200f0
:1006fc000080fa0000000600809fbe00821f780078
:10070c003200f8003400f80010002000a00188002e
:10071c001000200090018800000000000000fa008a
:10072c00a07080004400de006140600000c0ea0060
:10073c00614060000080fb00610060004400dd004f
:10074c00a2708000f1fe2f0081006100010070009a
:10075c00a07088000068a9000080fa003400f9003d
:10076c003200f9004f0178004f00be000040060037
:10077c00809fbe003200f8003400f800100020000a
:10078c00a0018800100020009001880000000000eb
:10079c000000fa00110021009140780000d0bf0049
:1007ac0080cf500002003600146ea8000100370004
:1007bc00146ea90000d0bf000040e80000f0b700a4
:1007cc0000d0bf00f34f5000010036000070ef0066
:1007dc00210021009140780001d0bf0080cf500053
:1007ec000300390002d0bf0001f0b7000a00370047
:1007fc0003d0bf000040e80003f0b70003d0bf00f7
:10080c00f84f500004003a0001d0bf000040e9004e
:10081c0001f0b7000370ef0000e8a9000080fa00b7
:10082c003400f9003200f9004f00be000040060011
:10083c000200fa00000f78000000280090088800e1
:10084c00060037000a21ef0000000000510880006c
:10085c00f0c32900808f5000fcff36001e0078008a
:10086c0000f0a7000000ea000000ea004f00de00e4
:10087c00004078001e0fe9000004e000f1ff3a0090
:0c088c001221ef000080fa0000000600be
:020000040000fa
:1008980000100000040000008000000000000000bc
:00000001FF
